101 000018021 000101006202209161614B106101                                                                
5200CARLOS MONTERO  094808759           8300379463PPDOTROS     20220921202209212591000010010000001        
63200001802109010320230102   000000050000000000901032023      Trinidad Carmen Arcia V 1000010010627404    
705000008300378906  OTROS     8300379463                000000000000000000000000   00010627404            
63200001802109010320230102   000000000010100000901032023      Erick Daniel Martinez V 1000010010627413    
705000008300379463  OTROS     8300563263                000000000000000000000000   00010627413            
65200001802109010320230102   000000000019900025901032023      Hector Ramirez EvangelV 1000010010627412    
705000008300379463  OTROS     8300563263                000000000000000000000000   00010627412            
62200001802109010320230102   000000000018800000901032023      Erick Daniel Martinez V 1000010010627411    
705000008300379463  OTROS     8300385463                000000000000000000000000   00010627411            
63200001802109010320230102   000000000037700000901032023      Marty Braxton         V 1000010010627410    
705000008300379463  OTROS     8300332563                000000000000000000000000   00010627410            
65200001802109010320230102   000000000056600000901032023      Linalca Informatica SAV 1000010010627409    
705000008300379463  OTROS     8300375263                000000000000000000000000   00010627409            
65200001802109010320230102   000000000015500000901032023      Trinidad Carmen Arcia V 1000010010627408    
705000008300387563  OTROS     8305639463                000000000000000000000000   00010627408            
65200001802109010320230102   000000000034400000901032023      QA Buyer              V 1000010010627407    
705000008300387363  OTROS     8304529463                000000000000000000000000   00010627407            
65200001802109010320230102   000000000043300000901032023      QA Ding               V 1000010010627406    
705000008308379463  OTROS     8300345663                000000000000000000000000   00010627406            
63200001802109010320230102   000000000152200000901032023      Trinidad Carmen Arcia V 1000010010627405    
705000008300387363  OTROS     8300375663                000000000000000000000000   00010627405            
820000002000000180200000000000000000000000000503885000258300379463                         000010010000001
5200QA Ding QA Ding                     900233562 PPDTRASLADOS 20220921202209212591000010010000002        
63100001802109010320230102   000000000000245800901032023      Carlos Pacheco          1000010010000001    
799R04000018020000209        00001001Numero de Cuenta Invalido                   000010010000001          
62100001802109010320230102   000000000000245600901032023      William Chacon          1000010010000004    
799R35000018020000214        00001001Tipo de cuenta errada                       000010010000004          
62100001802154849467         00000000000545480027272727       Edinson Barraza         1000010010000003    
799R16000018020000213        00001001Cuenta Inactiva o Cuenta Bloqueada          000010010000003          
65100001802154849464646      00000000000012540062627272       Diego Dominguez         1000010010000002    
799R03000018020000210        00001001Cuenta No Abierta                           000010010000002          
82000000080000007208000000000000000000000000000006071600900233562                          000010010000002
5200MUEBLES DON P   096007539           8902097883PPDOTROS     20220921202209212591000010020000003        
65700001802109010320230102   000000000000000000901032023      Trinidad Carmen Arcia   1000010021056825    
70500090024350481002777                       PRUEBA64                             00011056825            
63800001802109010320230102   000000000000000000901032023      SABAJON APOLO         V 1000010021056834    
7050009002435048656543222                     PRUEBA74                             00011056834            
63800001802109010320230102   000000000000000000901032023      Luis Augusto Mesa     V 1000010021056833    
7050009002435048656543222                     PRUEBA73                             00011056833            
63800001802109010320230102   000000000000000000901032023      Julio Cesar Morales   V 1000010021056832    
7050009002435048656543222                     PRUEBA72                             00011056832            
63800001802109010320230102   000000000000000000901032023      Jaime Luna            V 1000010021056831    
7050009002435048656543222                     PRUEBA71                             00011056831            
63800001802110000130010      00000000000000000019378639       Jose Cruz Heredia     V 1000010021056830    
70500090024350482568920                       PRUEBA70                             00011056830            
63800001802108906598760102   000000000000000000890659876      Linalca Informatica SAV 1000010021056829    
70500090024350482568920                       PRUEBA68                             00011056829            
6570000180211000009907       0000000000000000003742459        Cifin Identificacio   V 1000010021056828    
70500090024350482569163                       PRUEBA67                             00011056828            
65700001802109002335620102   000000000000000000900233563      QA Buyer              V 1000010021056827    
70500090024350481002779                       PRUEBA66                             00011056827            
65700001802109002335620102   000000000000000000900233562      QA Ding               V 1000010021056826    
7050009002435048533454                        PRUEBA65                             00011056826            
820000002000000180200000000000000000000000000000000000008902097883                         000010020000003
5200ORLANDO CASTILLO                    800197268 PPDTRASLADOS 20220921202209212591000010130000004        
65300001802109010320230102   000000000000000000901032023      Trinidad Carmen Arcia   1000010130000155    
705800197268        TRASLADOS 00001                     Prenotificacion            00010000155            
65300001802109010320230102   000000000000000000901032023      Trinidad Carmen Arcia V 1000010130000156    
705800197268        TRASLADOS 00002                     Prenotificacion            00010000156            
63300001802109010320230102   000000000000000000901032023      QA Ding               V 1000010130000157    
705800197268        TRASLADOS 00003                     Prenotificacion            00010000157            
65300001802109010320230102   000000000000000000901032023      QA Buyer              V 1000010130000158    
705800197268        TRASLADOS 00004                     Prenotificacion            00010000158            
63300001802109010320230102   000000000000000000901032023      Ramirez Evangelista   V 1000010130000159    
705800197268        TRASLADOS 00005                     Prenotificacion            00010000159            
65300001802108906598760102   000000000000000000901032023      Linalca Informatica SAV 1000010130000160    
705800197268        TRASLADOS 00006                     Prenotificacion            00010000160            
63300001802101015078185174   000000000000000000639636612      Marty Braxton         V 1000010130000161    
705800197268        TRASLADOS 00007                     Prenotificacion            00010000161            
6330000180211015200287489    00000000000000000036374859       Erick Daniel Martinez V 1000010130000162    
705800197268        TRASLADOS 00008                     Prenotificacion            00010000162            
62300001802101013912926447   0000000000000000001010260        Hector Ramirez Evang  V 1000010130000163    
705800197268        TRASLADOS 00009                     Prenotificacion            00010000163            
6330000180211017314581874    00000000000000000035093637       Erick Daniel Martinez V 1000010130000164    
705800197268        TRASLADOS 00010                     Prenotificacion            00010000164            
82000000200000018020000000000000000000000000000000000000800197268                          000010130000004
5200SANTAMARIA CARL 096007539           8902097883PPDOTROS     20220921202209212591000010130000005        
63700001802109010320230102   000000000155426911901032023      Trinidad Carmen Arcia V 1000010131056835    
70500090024350481013777                       PRUEBA64                             00011056835            
63700001802109010320230102   000000001185966012901032023      QA Ding               V 1000010131056836    
7050009002435048533454                        PRUEBA65                             00011056836            
63700001802109010320230102   000000001185966012901032023      QA Buyer              V 1000010131056837    
70500090024350481013779                       PRUEBA66                             00011056837            
63700001802109010320230102   000000001185966012901032023      Cifin Identificacio   V 1000010131056838    
70500090024350482569163                       PRUEBA67                             00011056838            
63700001802109010320230102   000000000069811108901032023      Jose Cruz Heredia     V 1000010131056839    
70500090024350482568920                       PRUEBA68                             00011056839            
6370000180211000013796       00000000006981110880076479       Jaime Luna            V 1000010131056840    
70500090024350482568920                       PRUEBA70                             00011056840            
6370000180211000015705       00000000006981110880136645       Julio Cesar Morales   V 1000010131056841    
7050009002435048656543222                     PRUEBAERROR                          00011056841            
6370000180211000016248       0000000001500987001136883250     Luis Augusto Mesa     V 1000010131056842    
7050009002435048656543222                     PRUEBAERROR                          00011056842            
6370000180211000014547       00000000015009870022186818       EDUCAR EDITORES SA    V 1000010131056843    
7050009002435048656543222                     PRUEBAERROR                          00011056843            
637000018021287621           0000000001236999999004568721     Cifin Identificacion  V 1000010131056844    
7050009002435048656543222                     PRUEBAERROR                          00011056844            
820000002000000180200000000043466556700000000000000000008902097883                         000010130000005
9000005000010000000880000079288000000004346655670000000050394571625                                       
